{
  "_format": "hh-sol-artifact-1",
  "contractName": "NFTMarketplace",
  "sourceName": "contracts/Lock.sol",
  "abi": [
    {
      "inputs": [
        {
          "internalType": "string",
          "name": "name",
          "type": "string"
        },
        {
          "internalType": "string",
          "name": "symbol",
          "type": "string"
        }
      ],
      "stateMutability": "nonpayable",
      "type": "constructor"
    },
    {
      "anonymous": false,
      "inputs": [
        {
          "indexed": true,
          "internalType": "address",
          "name": "owner",
          "type": "address"
        },
        {
          "indexed": true,
          "internalType": "address",
          "name": "approved",
          "type": "address"
        },
        {
          "indexed": true,
          "internalType": "uint256",
          "name": "tokenId",
          "type": "uint256"
        }
      ],
      "name": "Approval",
      "type": "event"
    },
    {
      "anonymous": false,
      "inputs": [
        {
          "indexed": true,
          "internalType": "address",
          "name": "owner",
          "type": "address"
        },
        {
          "indexed": true,
          "internalType": "address",
          "name": "operator",
          "type": "address"
        },
        {
          "indexed": false,
          "internalType": "bool",
          "name": "approved",
          "type": "bool"
        }
      ],
      "name": "ApprovalForAll",
      "type": "event"
    },
    {
      "anonymous": false,
      "inputs": [
        {
          "indexed": true,
          "internalType": "uint256",
          "name": "tokenId",
          "type": "uint256"
        },
        {
          "indexed": false,
          "internalType": "address",
          "name": "seller",
          "type": "address"
        },
        {
          "indexed": false,
          "internalType": "address",
          "name": "owner",
          "type": "address"
        },
        {
          "indexed": false,
          "internalType": "uint256",
          "name": "price",
          "type": "uint256"
        },
        {
          "indexed": false,
          "internalType": "bool",
          "name": "sold",
          "type": "bool"
        }
      ],
      "name": "MarketItemCreated",
      "type": "event"
    },
    {
      "anonymous": false,
      "inputs": [
        {
          "indexed": true,
          "internalType": "address",
          "name": "from",
          "type": "address"
        },
        {
          "indexed": true,
          "internalType": "address",
          "name": "to",
          "type": "address"
        },
        {
          "indexed": true,
          "internalType": "uint256",
          "name": "tokenId",
          "type": "uint256"
        }
      ],
      "name": "Transfer",
      "type": "event"
    },
    {
      "inputs": [
        {
          "internalType": "address",
          "name": "to",
          "type": "address"
        },
        {
          "internalType": "uint256",
          "name": "tokenId",
          "type": "uint256"
        }
      ],
      "name": "approve",
      "outputs": [],
      "stateMutability": "nonpayable",
      "type": "function"
    },
    {
      "inputs": [
        {
          "internalType": "address",
          "name": "owner",
          "type": "address"
        }
      ],
      "name": "balanceOf",
      "outputs": [
        {
          "internalType": "uint256",
          "name": "",
          "type": "uint256"
        }
      ],
      "stateMutability": "view",
      "type": "function"
    },
    {
      "inputs": [
        {
          "internalType": "uint256",
          "name": "tokenId",
          "type": "uint256"
        }
      ],
      "name": "createMarketSale",
      "outputs": [],
      "stateMutability": "payable",
      "type": "function"
    },
    {
      "inputs": [
        {
          "internalType": "string",
          "name": "tokenURI",
          "type": "string"
        },
        {
          "internalType": "uint256",
          "name": "price",
          "type": "uint256"
        }
      ],
      "name": "createToken",
      "outputs": [
        {
          "internalType": "uint256",
          "name": "",
          "type": "uint256"
        }
      ],
      "stateMutability": "payable",
      "type": "function"
    },
    {
      "inputs": [
        {
          "internalType": "uint256",
          "name": "tokenId",
          "type": "uint256"
        }
      ],
      "name": "getApproved",
      "outputs": [
        {
          "internalType": "address",
          "name": "",
          "type": "address"
        }
      ],
      "stateMutability": "view",
      "type": "function"
    },
    {
      "inputs": [],
      "name": "getListingPrice",
      "outputs": [
        {
          "internalType": "uint256",
          "name": "",
          "type": "uint256"
        }
      ],
      "stateMutability": "view",
      "type": "function"
    },
    {
      "inputs": [
        {
          "internalType": "address",
          "name": "owner",
          "type": "address"
        },
        {
          "internalType": "address",
          "name": "operator",
          "type": "address"
        }
      ],
      "name": "isApprovedForAll",
      "outputs": [
        {
          "internalType": "bool",
          "name": "",
          "type": "bool"
        }
      ],
      "stateMutability": "view",
      "type": "function"
    },
    {
      "inputs": [],
      "name": "name",
      "outputs": [
        {
          "internalType": "string",
          "name": "",
          "type": "string"
        }
      ],
      "stateMutability": "view",
      "type": "function"
    },
    {
      "inputs": [
        {
          "internalType": "uint256",
          "name": "tokenId",
          "type": "uint256"
        }
      ],
      "name": "ownerOf",
      "outputs": [
        {
          "internalType": "address",
          "name": "",
          "type": "address"
        }
      ],
      "stateMutability": "view",
      "type": "function"
    },
    {
      "inputs": [
        {
          "internalType": "uint256",
          "name": "tokenId",
          "type": "uint256"
        },
        {
          "internalType": "uint256",
          "name": "price",
          "type": "uint256"
        }
      ],
      "name": "resellToken",
      "outputs": [],
      "stateMutability": "payable",
      "type": "function"
    },
    {
      "inputs": [
        {
          "internalType": "address",
          "name": "from",
          "type": "address"
        },
        {
          "internalType": "address",
          "name": "to",
          "type": "address"
        },
        {
          "internalType": "uint256",
          "name": "tokenId",
          "type": "uint256"
        }
      ],
      "name": "safeTransferFrom",
      "outputs": [],
      "stateMutability": "nonpayable",
      "type": "function"
    },
    {
      "inputs": [
        {
          "internalType": "address",
          "name": "from",
          "type": "address"
        },
        {
          "internalType": "address",
          "name": "to",
          "type": "address"
        },
        {
          "internalType": "uint256",
          "name": "tokenId",
          "type": "uint256"
        },
        {
          "internalType": "bytes",
          "name": "data",
          "type": "bytes"
        }
      ],
      "name": "safeTransferFrom",
      "outputs": [],
      "stateMutability": "nonpayable",
      "type": "function"
    },
    {
      "inputs": [
        {
          "internalType": "address",
          "name": "operator",
          "type": "address"
        },
        {
          "internalType": "bool",
          "name": "approved",
          "type": "bool"
        }
      ],
      "name": "setApprovalForAll",
      "outputs": [],
      "stateMutability": "nonpayable",
      "type": "function"
    },
    {
      "inputs": [
        {
          "internalType": "bytes4",
          "name": "interfaceId",
          "type": "bytes4"
        }
      ],
      "name": "supportsInterface",
      "outputs": [
        {
          "internalType": "bool",
          "name": "",
          "type": "bool"
        }
      ],
      "stateMutability": "view",
      "type": "function"
    },
    {
      "inputs": [],
      "name": "symbol",
      "outputs": [
        {
          "internalType": "string",
          "name": "",
          "type": "string"
        }
      ],
      "stateMutability": "view",
      "type": "function"
    },
    {
      "inputs": [
        {
          "internalType": "uint256",
          "name": "tokenId",
          "type": "uint256"
        }
      ],
      "name": "tokenURI",
      "outputs": [
        {
          "internalType": "string",
          "name": "",
          "type": "string"
        }
      ],
      "stateMutability": "view",
      "type": "function"
    },
    {
      "inputs": [
        {
          "internalType": "address",
          "name": "from",
          "type": "address"
        },
        {
          "internalType": "address",
          "name": "to",
          "type": "address"
        },
        {
          "internalType": "uint256",
          "name": "tokenId",
          "type": "uint256"
        }
      ],
      "name": "transferFrom",
      "outputs": [],
      "stateMutability": "nonpayable",
      "type": "function"
    },
    {
      "inputs": [
        {
          "internalType": "uint256",
          "name": "_listingPrice",
          "type": "uint256"
        }
      ],
      "name": "updateListingPrice",
      "outputs": [],
      "stateMutability": "payable",
      "type": "function"
    }
  ],
  "bytecode": "0x6080604052655af3107a40006009553480156200001b57600080fd5b50604051620038db380380620038db83398181016040528101906200004191906200030d565b818181600090805190602001906200005b929190620000c0565b50806001908051906020019062000074929190620000c0565b50505033600a60006101000a81548173ffffffffffffffffffffffffffffffffffffffff021916908373ffffffffffffffffffffffffffffffffffffffff1602179055505050620003f7565b828054620000ce90620003c1565b90600052602060002090601f016020900481019282620000f257600085556200013e565b82601f106200010d57805160ff19168380011785556200013e565b828001600101855582156200013e579182015b828111156200013d57825182559160200191906001019062000120565b5b5090506200014d919062000151565b5090565b5b808211156200016c57600081600090555060010162000152565b5090565b6000604051905090565b600080fd5b600080fd5b600080fd5b600080fd5b6000601f19601f8301169050919050565b7f4e487b7100000000000000000000000000000000000000000000000000000000600052604160045260246000fd5b620001d9826200018e565b810181811067ffffffffffffffff82111715620001fb57620001fa6200019f565b5b80604052505050565b60006200021062000170565b90506200021e8282620001ce565b919050565b600067ffffffffffffffff8211156200024157620002406200019f565b5b6200024c826200018e565b9050602081019050919050565b60005b83811015620002795780820151818401526020810190506200025c565b8381111562000289576000848401525b50505050565b6000620002a6620002a08462000223565b62000204565b905082815260208101848484011115620002c557620002c462000189565b5b620002d284828562000259565b509392505050565b600082601f830112620002f257620002f162000184565b5b8151620003048482602086016200028f565b91505092915050565b600080604083850312156200032757620003266200017a565b5b600083015167ffffffffffffffff8111156200034857620003476200017f565b5b6200035685828601620002da565b925050602083015167ffffffffffffffff8111156200037a57620003796200017f565b5b6200038885828601620002da565b9150509250929050565b7f4e487b7100000000000000000000000000000000000000000000000000000000600052602260045260246000fd5b60006002820490506001821680620003da57607f821691505b60208210811415620003f157620003f062000392565b5b50919050565b6134d480620004076000396000f3fe6080604052600436106101095760003560e01c806372b3b62011610095578063b88d4fde11610064578063b88d4fde14610373578063be9af5361461039c578063c87b56dd146103b8578063e219fc75146103f5578063e985e9c51461041157610109565b806372b3b620146102d357806395d89b4114610303578063a22cb4651461032e578063ae677aa31461035757610109565b806312e85585116100dc57806312e85585146101dc57806323b872dd1461020757806342842e0e146102305780636352211e1461025957806370a082311461029657610109565b806301ffc9a71461010e57806306fdde031461014b578063081812fc14610176578063095ea7b3146101b3575b600080fd5b34801561011a57600080fd5b50610135600480360381019061013091906120ff565b61044e565b6040516101429190612147565b60405180910390f35b34801561015757600080fd5b50610160610530565b60405161016d91906121fb565b60405180910390f35b34801561018257600080fd5b5061019d60048036038101906101989190612253565b6105c2565b6040516101aa91906122c1565b60405180910390f35b3480156101bf57600080fd5b506101da60048036038101906101d59190612308565b610608565b005b3480156101e857600080fd5b506101f1610720565b6040516101fe9190612357565b60405180910390f35b34801561021357600080fd5b5061022e60048036038101906102299190612372565b61072a565b005b34801561023c57600080fd5b5061025760048036038101906102529190612372565b61078a565b005b34801561026557600080fd5b50610280600480360381019061027b9190612253565b6107aa565b60405161028d91906122c1565b60405180910390f35b3480156102a257600080fd5b506102bd60048036038101906102b891906123c5565b61085c565b6040516102ca9190612357565b60405180910390f35b6102ed60048036038101906102e89190612527565b610914565b6040516102fa9190612357565b60405180910390f35b34801561030f57600080fd5b50610318610956565b60405161032591906121fb565b60405180910390f35b34801561033a57600080fd5b50610355600480360381019061035091906125af565b6109e8565b005b610371600480360381019061036c9190612253565b6109fe565b005b34801561037f57600080fd5b5061039a60048036038101906103959190612690565b610a98565b005b6103b660048036038101906103b19190612253565b610afa565b005b3480156103c457600080fd5b506103df60048036038101906103da9190612253565b610d38565b6040516103ec91906121fb565b60405180910390f35b61040f600480360381019061040a9190612713565b610e4b565b005b34801561041d57600080fd5b5061043860048036038101906104339190612753565b611040565b6040516104459190612147565b60405180910390f35b60007f80ac58cd000000000000000000000000000000000000000000000000000000007bffffffffffffffffffffffffffffffffffffffffffffffffffffffff1916827bffffffffffffffffffffffffffffffffffffffffffffffffffffffff1916148061051957507f5b5e139f000000000000000000000000000000000000000000000000000000007bffffffffffffffffffffffffffffffffffffffffffffffffffffffff1916827bffffffffffffffffffffffffffffffffffffffffffffffffffffffff1916145b806105295750610528826110d4565b5b9050919050565b60606000805461053f906127c2565b80601f016020809104026020016040519081016040528092919081815260200182805461056b906127c2565b80156105b85780601f1061058d576101008083540402835291602001916105b8565b820191906000526020600020905b81548152906001019060200180831161059b57829003601f168201915b5050505050905090565b60006105cd8261113e565b6004600083815260200190815260200160002060009054906101000a900473ffffffffffffffffffffffffffffffffffffffff169050919050565b6000610613826107aa565b90508073ffffffffffffffffffffffffffffffffffffffff168373ffffffffffffffffffffffffffffffffffffffff161415610684576040517f08c379a000000000000000000000000000000000000000000000000000000000815260040161067b90612866565b60405180910390fd5b8073ffffffffffffffffffffffffffffffffffffffff166106a3611189565b73ffffffffffffffffffffffffffffffffffffffff1614806106d257506106d1816106cc611189565b611040565b5b610711576040517f08c379a0000000000000000000000000000000000000000000000000000000008152600401610708906128f8565b60405180910390fd5b61071b8383611191565b505050565b6000600954905090565b61073b610735611189565b8261124a565b61077a576040517f08c379a00000000000000000000000000000000000000000000000000000000081526004016107719061298a565b60405180910390fd5b6107858383836112df565b505050565b6107a583838360405180602001604052806000815250610a98565b505050565b6000806002600084815260200190815260200160002060009054906101000a900473ffffffffffffffffffffffffffffffffffffffff169050600073ffffffffffffffffffffffffffffffffffffffff168173ffffffffffffffffffffffffffffffffffffffff161415610853576040517f08c379a000000000000000000000000000000000000000000000000000000000815260040161084a906129f6565b60405180910390fd5b80915050919050565b60008073ffffffffffffffffffffffffffffffffffffffff168273ffffffffffffffffffffffffffffffffffffffff1614156108cd576040517f08c379a00000000000000000000000000000000000000000000000000000000081526004016108c490612a88565b60405180910390fd5b600360008373ffffffffffffffffffffffffffffffffffffffff1673ffffffffffffffffffffffffffffffffffffffff168152602001908152602001600020549050919050565b60006109206007611546565b600061092c600761155c565b9050610938338261156a565b6109428185611744565b61094c81846117b8565b8091505092915050565b606060018054610965906127c2565b80601f0160208091040260200160405190810160405280929190818152602001828054610991906127c2565b80156109de5780601f106109b3576101008083540402835291602001916109de565b820191906000526020600020905b8154815290600101906020018083116109c157829003601f168201915b5050505050905090565b6109fa6109f3611189565b83836119bb565b5050565b3373ffffffffffffffffffffffffffffffffffffffff16600a60009054906101000a900473ffffffffffffffffffffffffffffffffffffffff1673ffffffffffffffffffffffffffffffffffffffff1614610a8e576040517f08c379a0000000000000000000000000000000000000000000000000000000008152600401610a8590612b1a565b60405180910390fd5b8060098190555050565b610aa9610aa3611189565b8361124a565b610ae8576040517f08c379a0000000000000000000000000000000000000000000000000000000008152600401610adf9061298a565b60405180910390fd5b610af484848484611b28565b50505050565b6000600b60008381526020019081526020016000206003015490506000600b600084815260200190815260200160002060010160009054906101000a900473ffffffffffffffffffffffffffffffffffffffff169050813414610b92576040517f08c379a0000000000000000000000000000000000000000000000000000000008152600401610b8990612bac565b60405180910390fd5b33600b600085815260200190815260200160002060020160006101000a81548173ffffffffffffffffffffffffffffffffffffffff021916908373ffffffffffffffffffffffffffffffffffffffff1602179055506001600b600085815260200190815260200160002060040160006101000a81548160ff0219169083151502179055506000600b600085815260200190815260200160002060010160006101000a81548173ffffffffffffffffffffffffffffffffffffffff021916908373ffffffffffffffffffffffffffffffffffffffff160217905550610c766008611546565b610c813033856112df565b600a60009054906101000a900473ffffffffffffffffffffffffffffffffffffffff1673ffffffffffffffffffffffffffffffffffffffff166108fc6009549081150290604051600060405180830381858888f19350505050158015610ceb573d6000803e3d6000fd5b508073ffffffffffffffffffffffffffffffffffffffff166108fc349081150290604051600060405180830381858888f19350505050158015610d32573d6000803e3d6000fd5b50505050565b6060610d438261113e565b6000600660008481526020019081526020016000208054610d63906127c2565b80601f0160208091040260200160405190810160405280929190818152602001828054610d8f906127c2565b8015610ddc5780601f10610db157610100808354040283529160200191610ddc565b820191906000526020600020905b815481529060010190602001808311610dbf57829003601f168201915b505050505090506000610ded611b84565b9050600081511415610e03578192505050610e46565b600082511115610e38578082604051602001610e20929190612c08565b60405160208183030381529060405292505050610e46565b610e4184611b9b565b925050505b919050565b3373ffffffffffffffffffffffffffffffffffffffff16600b600084815260200190815260200160002060020160009054906101000a900473ffffffffffffffffffffffffffffffffffffffff1673ffffffffffffffffffffffffffffffffffffffff1614610eef576040517f08c379a0000000000000000000000000000000000000000000000000000000008152600401610ee690612c9e565b60405180910390fd5b6009543414610f33576040517f08c379a0000000000000000000000000000000000000000000000000000000008152600401610f2a90612d30565b60405180910390fd5b6000600b600084815260200190815260200160002060040160006101000a81548160ff02191690831515021790555080600b60008481526020019081526020016000206003018190555033600b600084815260200190815260200160002060010160006101000a81548173ffffffffffffffffffffffffffffffffffffffff021916908373ffffffffffffffffffffffffffffffffffffffff16021790555030600b600084815260200190815260200160002060020160006101000a81548173ffffffffffffffffffffffffffffffffffffffff021916908373ffffffffffffffffffffffffffffffffffffffff1602179055506110316008611c03565b61103c3330846112df565b5050565b6000600560008473ffffffffffffffffffffffffffffffffffffffff1673ffffffffffffffffffffffffffffffffffffffff16815260200190815260200160002060008373ffffffffffffffffffffffffffffffffffffffff1673ffffffffffffffffffffffffffffffffffffffff16815260200190815260200160002060009054906101000a900460ff16905092915050565b60007f01ffc9a7000000000000000000000000000000000000000000000000000000007bffffffffffffffffffffffffffffffffffffffffffffffffffffffff1916827bffffffffffffffffffffffffffffffffffffffffffffffffffffffff1916149050919050565b61114781611c5f565b611186576040517f08c379a000000000000000000000000000000000000000000000000000000000815260040161117d906129f6565b60405180910390fd5b50565b600033905090565b816004600083815260200190815260200160002060006101000a81548173ffffffffffffffffffffffffffffffffffffffff021916908373ffffffffffffffffffffffffffffffffffffffff160217905550808273ffffffffffffffffffffffffffffffffffffffff16611204836107aa565b73ffffffffffffffffffffffffffffffffffffffff167f8c5be1e5ebec7d5bd14f71427d1e84f3dd0314c0f7b2291e5b200ac8c7c3b92560405160405180910390a45050565b600080611256836107aa565b90508073ffffffffffffffffffffffffffffffffffffffff168473ffffffffffffffffffffffffffffffffffffffff16148061129857506112978185611040565b5b806112d657508373ffffffffffffffffffffffffffffffffffffffff166112be846105c2565b73ffffffffffffffffffffffffffffffffffffffff16145b91505092915050565b8273ffffffffffffffffffffffffffffffffffffffff166112ff826107aa565b73ffffffffffffffffffffffffffffffffffffffff1614611355576040517f08c379a000000000000000000000000000000000000000000000000000000000815260040161134c90612dc2565b60405180910390fd5b600073ffffffffffffffffffffffffffffffffffffffff168273ffffffffffffffffffffffffffffffffffffffff1614156113c5576040517f08c379a00000000000000000000000000000000000000000000000000000000081526004016113bc90612e54565b60405180910390fd5b6113d0838383611ccb565b6113db600082611191565b6001600360008573ffffffffffffffffffffffffffffffffffffffff1673ffffffffffffffffffffffffffffffffffffffff168152602001908152602001600020600082825461142b9190612ea3565b925050819055506001600360008473ffffffffffffffffffffffffffffffffffffffff1673ffffffffffffffffffffffffffffffffffffffff16815260200190815260200160002060008282546114829190612ed7565b92505081905550816002600083815260200190815260200160002060006101000a81548173ffffffffffffffffffffffffffffffffffffffff021916908373ffffffffffffffffffffffffffffffffffffffff160217905550808273ffffffffffffffffffffffffffffffffffffffff168473ffffffffffffffffffffffffffffffffffffffff167fddf252ad1be2c89b69c2b068fc378daa952ba7f163c4a11628f55a4df523b3ef60405160405180910390a4611541838383611cd0565b505050565b6001816000016000828254019250508190555050565b600081600001549050919050565b600073ffffffffffffffffffffffffffffffffffffffff168273ffffffffffffffffffffffffffffffffffffffff1614156115da576040517f08c379a00000000000000000000000000000000000000000000000000000000081526004016115d190612f79565b60405180910390fd5b6115e381611c5f565b15611623576040517f08c379a000000000000000000000000000000000000000000000000000000000815260040161161a90612fe5565b60405180910390fd5b61162f60008383611ccb565b6001600360008473ffffffffffffffffffffffffffffffffffffffff1673ffffffffffffffffffffffffffffffffffffffff168152602001908152602001600020600082825461167f9190612ed7565b92505081905550816002600083815260200190815260200160002060006101000a81548173ffffffffffffffffffffffffffffffffffffffff021916908373ffffffffffffffffffffffffffffffffffffffff160217905550808273ffffffffffffffffffffffffffffffffffffffff16600073ffffffffffffffffffffffffffffffffffffffff167fddf252ad1be2c89b69c2b068fc378daa952ba7f163c4a11628f55a4df523b3ef60405160405180910390a461174060008383611cd0565b5050565b61174d82611c5f565b61178c576040517f08c379a000000000000000000000000000000000000000000000000000000000815260040161178390613077565b60405180910390fd5b806006600084815260200190815260200160002090805190602001906117b3929190611ff0565b505050565b600081116117fb576040517f08c379a00000000000000000000000000000000000000000000000000000000081526004016117f2906130e3565b60405180910390fd5b600954341461183f576040517f08c379a000000000000000000000000000000000000000000000000000000000815260040161183690612d30565b60405180910390fd5b6040518060a001604052808381526020013373ffffffffffffffffffffffffffffffffffffffff1681526020013073ffffffffffffffffffffffffffffffffffffffff16815260200182815260200160001515815250600b60008481526020019081526020016000206000820151816000015560208201518160010160006101000a81548173ffffffffffffffffffffffffffffffffffffffff021916908373ffffffffffffffffffffffffffffffffffffffff16021790555060408201518160020160006101000a81548173ffffffffffffffffffffffffffffffffffffffff021916908373ffffffffffffffffffffffffffffffffffffffff1602179055506060820151816003015560808201518160040160006101000a81548160ff0219169083151502179055509050506119783330846112df565b817fb640004f1d14576d0c209e240cad0410e0d8c0c33a09375861fbadae2588a98d33308460006040516119af9493929190613103565b60405180910390a25050565b8173ffffffffffffffffffffffffffffffffffffffff168373ffffffffffffffffffffffffffffffffffffffff161415611a2a576040517f08c379a0000000000000000000000000000000000000000000000000000000008152600401611a2190613194565b60405180910390fd5b80600560008573ffffffffffffffffffffffffffffffffffffffff1673ffffffffffffffffffffffffffffffffffffffff16815260200190815260200160002060008473ffffffffffffffffffffffffffffffffffffffff1673ffffffffffffffffffffffffffffffffffffffff16815260200190815260200160002060006101000a81548160ff0219169083151502179055508173ffffffffffffffffffffffffffffffffffffffff168373ffffffffffffffffffffffffffffffffffffffff167f17307eab39ab6107e8899845ad3d59bd9653f200f220920489ca2b5937696c3183604051611b1b9190612147565b60405180910390a3505050565b611b338484846112df565b611b3f84848484611cd5565b611b7e576040517f08c379a0000000000000000000000000000000000000000000000000000000008152600401611b7590613226565b60405180910390fd5b50505050565b606060405180602001604052806000815250905090565b6060611ba68261113e565b6000611bb0611b84565b90506000815111611bd05760405180602001604052806000815250611bfb565b80611bda84611e6c565b604051602001611beb929190612c08565b6040516020818303038152906040525b915050919050565b60008160000154905060008111611c4f576040517f08c379a0000000000000000000000000000000000000000000000000000000008152600401611c4690613292565b60405180910390fd5b6001810382600001819055505050565b60008073ffffffffffffffffffffffffffffffffffffffff166002600084815260200190815260200160002060009054906101000a900473ffffffffffffffffffffffffffffffffffffffff1673ffffffffffffffffffffffffffffffffffffffff1614159050919050565b505050565b505050565b6000611cf68473ffffffffffffffffffffffffffffffffffffffff16611fcd565b15611e5f578373ffffffffffffffffffffffffffffffffffffffff1663150b7a02611d1f611189565b8786866040518563ffffffff1660e01b8152600401611d419493929190613307565b602060405180830381600087803b158015611d5b57600080fd5b505af1925050508015611d8c57506040513d601f19601f82011682018060405250810190611d899190613368565b60015b611e0f573d8060008114611dbc576040519150601f19603f3d011682016040523d82523d6000602084013e611dc1565b606091505b50600081511415611e07576040517f08c379a0000000000000000000000000000000000000000000000000000000008152600401611dfe90613226565b60405180910390fd5b805181602001fd5b63150b7a0260e01b7bffffffffffffffffffffffffffffffffffffffffffffffffffffffff1916817bffffffffffffffffffffffffffffffffffffffffffffffffffffffff191614915050611e64565b600190505b949350505050565b60606000821415611eb4576040518060400160405280600181526020017f30000000000000000000000000000000000000000000000000000000000000008152509050611fc8565b600082905060005b60008214611ee6578080611ecf90613395565b915050600a82611edf919061340d565b9150611ebc565b60008167ffffffffffffffff811115611f0257611f016123fc565b5b6040519080825280601f01601f191660200182016040528015611f345781602001600182028036833780820191505090505b5090505b60008514611fc157600182611f4d9190612ea3565b9150600a85611f5c919061343e565b6030611f689190612ed7565b60f81b818381518110611f7e57611f7d61346f565b5b60200101907effffffffffffffffffffffffffffffffffffffffffffffffffffffffffffff1916908160001a905350600a85611fba919061340d565b9450611f38565b8093505050505b919050565b6000808273ffffffffffffffffffffffffffffffffffffffff163b119050919050565b828054611ffc906127c2565b90600052602060002090601f01602090048101928261201e5760008555612065565b82601f1061203757805160ff1916838001178555612065565b82800160010185558215612065579182015b82811115612064578251825591602001919060010190612049565b5b5090506120729190612076565b5090565b5b8082111561208f576000816000905550600101612077565b5090565b6000604051905090565b600080fd5b600080fd5b60007fffffffff0000000000000000000000000000000000000000000000000000000082169050919050565b6120dc816120a7565b81146120e757600080fd5b50565b6000813590506120f9816120d3565b92915050565b6000602082840312156121155761211461209d565b5b6000612123848285016120ea565b91505092915050565b60008115159050919050565b6121418161212c565b82525050565b600060208201905061215c6000830184612138565b92915050565b600081519050919050565b600082825260208201905092915050565b60005b8381101561219c578082015181840152602081019050612181565b838111156121ab576000848401525b50505050565b6000601f19601f8301169050919050565b60006121cd82612162565b6121d7818561216d565b93506121e781856020860161217e565b6121f0816121b1565b840191505092915050565b6000602082019050818103600083015261221581846121c2565b905092915050565b6000819050919050565b6122308161221d565b811461223b57600080fd5b50565b60008135905061224d81612227565b92915050565b6000602082840312156122695761226861209d565b5b60006122778482850161223e565b91505092915050565b600073ffffffffffffffffffffffffffffffffffffffff82169050919050565b60006122ab82612280565b9050919050565b6122bb816122a0565b82525050565b60006020820190506122d660008301846122b2565b92915050565b6122e5816122a0565b81146122f057600080fd5b50565b600081359050612302816122dc565b92915050565b6000806040838503121561231f5761231e61209d565b5b600061232d858286016122f3565b925050602061233e8582860161223e565b9150509250929050565b6123518161221d565b82525050565b600060208201905061236c6000830184612348565b92915050565b60008060006060848603121561238b5761238a61209d565b5b6000612399868287016122f3565b93505060206123aa868287016122f3565b92505060406123bb8682870161223e565b9150509250925092565b6000602082840312156123db576123da61209d565b5b60006123e9848285016122f3565b91505092915050565b600080fd5b600080fd5b7f4e487b7100000000000000000000000000000000000000000000000000000000600052604160045260246000fd5b612434826121b1565b810181811067ffffffffffffffff82111715612453576124526123fc565b5b80604052505050565b6000612466612093565b9050612472828261242b565b919050565b600067ffffffffffffffff821115612492576124916123fc565b5b61249b826121b1565b9050602081019050919050565b82818337600083830152505050565b60006124ca6124c584612477565b61245c565b9050828152602081018484840111156124e6576124e56123f7565b5b6124f18482856124a8565b509392505050565b600082601f83011261250e5761250d6123f2565b5b813561251e8482602086016124b7565b91505092915050565b6000806040838503121561253e5761253d61209d565b5b600083013567ffffffffffffffff81111561255c5761255b6120a2565b5b612568858286016124f9565b92505060206125798582860161223e565b9150509250929050565b61258c8161212c565b811461259757600080fd5b50565b6000813590506125a981612583565b92915050565b600080604083850312156125c6576125c561209d565b5b60006125d4858286016122f3565b92505060206125e58582860161259a565b9150509250929050565b600067ffffffffffffffff82111561260a576126096123fc565b5b612613826121b1565b9050602081019050919050565b600061263361262e846125ef565b61245c565b90508281526020810184848401111561264f5761264e6123f7565b5b61265a8482856124a8565b509392505050565b600082601f830112612677576126766123f2565b5b8135612687848260208601612620565b91505092915050565b600080600080608085870312156126aa576126a961209d565b5b60006126b8878288016122f3565b94505060206126c9878288016122f3565b93505060406126da8782880161223e565b925050606085013567ffffffffffffffff8111156126fb576126fa6120a2565b5b61270787828801612662565b91505092959194509250565b6000806040838503121561272a5761272961209d565b5b60006127388582860161223e565b92505060206127498582860161223e565b9150509250929050565b6000806040838503121561276a5761276961209d565b5b6000612778858286016122f3565b9250506020612789858286016122f3565b9150509250929050565b7f4e487b7100000000000000000000000000000000000000000000000000000000600052602260045260246000fd5b600060028204905060018216806127da57607f821691505b602082108114156127ee576127ed612793565b5b50919050565b7f4552433732313a20617070726f76616c20746f2063757272656e74206f776e6560008201527f7200000000000000000000000000000000000000000000000000000000000000602082015250565b600061285060218361216d565b915061285b826127f4565b604082019050919050565b6000602082019050818103600083015261287f81612843565b9050919050565b7f4552433732313a20617070726f76652063616c6c6572206973206e6f7420746f60008201527f6b656e206f776e6572206e6f7220617070726f76656420666f7220616c6c0000602082015250565b60006128e2603e8361216d565b91506128ed82612886565b604082019050919050565b60006020820190508181036000830152612911816128d5565b9050919050565b7f4552433732313a2063616c6c6572206973206e6f7420746f6b656e206f776e6560008201527f72206e6f7220617070726f766564000000000000000000000000000000000000602082015250565b6000612974602e8361216d565b915061297f82612918565b604082019050919050565b600060208201905081810360008301526129a381612967565b9050919050565b7f4552433732313a20696e76616c696420746f6b656e2049440000000000000000600082015250565b60006129e060188361216d565b91506129eb826129aa565b602082019050919050565b60006020820190508181036000830152612a0f816129d3565b9050919050565b7f4552433732313a2061646472657373207a65726f206973206e6f74206120766160008201527f6c6964206f776e65720000000000000000000000000000000000000000000000602082015250565b6000612a7260298361216d565b9150612a7d82612a16565b604082019050919050565b60006020820190508181036000830152612aa181612a65565b9050919050565b7f596f752068617665206e6f20726967687420746f206368616e6765207468652060008201527f70726963652e0000000000000000000000000000000000000000000000000000602082015250565b6000612b0460268361216d565b9150612b0f82612aa8565b604082019050919050565b60006020820190508181036000830152612b3381612af7565b9050919050565b7f506c65617365207375626d6974207468652061736b696e67207072696365206960008201527f6e206f7264657220746f20636f6d706c65746520746865207075726368617365602082015250565b6000612b9660408361216d565b9150612ba182612b3a565b604082019050919050565b60006020820190508181036000830152612bc581612b89565b9050919050565b600081905092915050565b6000612be282612162565b612bec8185612bcc565b9350612bfc81856020860161217e565b80840191505092915050565b6000612c148285612bd7565b9150612c208284612bd7565b91508190509392505050565b7f4f6e6c79206974656d206f776e65722063616e20706572666f726d207468697360008201527f206f7065726174696f6e00000000000000000000000000000000000000000000602082015250565b6000612c88602a8361216d565b9150612c9382612c2c565b604082019050919050565b60006020820190508181036000830152612cb781612c7b565b9050919050565b7f5072696365206d75737420626520657175616c20746f206c697374696e67207060008201527f7269636500000000000000000000000000000000000000000000000000000000602082015250565b6000612d1a60248361216d565b9150612d2582612cbe565b604082019050919050565b60006020820190508181036000830152612d4981612d0d565b9050919050565b7f4552433732313a207472616e736665722066726f6d20696e636f72726563742060008201527f6f776e6572000000000000000000000000000000000000000000000000000000602082015250565b6000612dac60258361216d565b9150612db782612d50565b604082019050919050565b60006020820190508181036000830152612ddb81612d9f565b9050919050565b7f4552433732313a207472616e7366657220746f20746865207a65726f2061646460008201527f7265737300000000000000000000000000000000000000000000000000000000602082015250565b6000612e3e60248361216d565b9150612e4982612de2565b604082019050919050565b60006020820190508181036000830152612e6d81612e31565b9050919050565b7f4e487b7100000000000000000000000000000000000000000000000000000000600052601160045260246000fd5b6000612eae8261221d565b9150612eb98361221d565b925082821015612ecc57612ecb612e74565b5b828203905092915050565b6000612ee28261221d565b9150612eed8361221d565b9250827fffffffffffffffffffffffffffffffffffffffffffffffffffffffffffffffff03821115612f2257612f21612e74565b5b828201905092915050565b7f4552433732313a206d696e7420746f20746865207a65726f2061646472657373600082015250565b6000612f6360208361216d565b9150612f6e82612f2d565b602082019050919050565b60006020820190508181036000830152612f9281612f56565b9050919050565b7f4552433732313a20746f6b656e20616c7265616479206d696e74656400000000600082015250565b6000612fcf601c8361216d565b9150612fda82612f99565b602082019050919050565b60006020820190508181036000830152612ffe81612fc2565b9050919050565b7f45524337323155524953746f726167653a2055524920736574206f66206e6f6e60008201527f6578697374656e7420746f6b656e000000000000000000000000000000000000602082015250565b6000613061602e8361216d565b915061306c82613005565b604082019050919050565b6000602082019050818103600083015261309081613054565b9050919050565b7f5072696365206d757374206265206174206c656173742031206d6f6e65790000600082015250565b60006130cd601e8361216d565b91506130d882613097565b602082019050919050565b600060208201905081810360008301526130fc816130c0565b9050919050565b600060808201905061311860008301876122b2565b61312560208301866122b2565b6131326040830185612348565b61313f6060830184612138565b95945050505050565b7f4552433732313a20617070726f766520746f2063616c6c657200000000000000600082015250565b600061317e60198361216d565b915061318982613148565b602082019050919050565b600060208201905081810360008301526131ad81613171565b9050919050565b7f4552433732313a207472616e7366657220746f206e6f6e20455243373231526560008201527f63656976657220696d706c656d656e7465720000000000000000000000000000602082015250565b600061321060328361216d565b915061321b826131b4565b604082019050919050565b6000602082019050818103600083015261323f81613203565b9050919050565b7f436f756e7465723a2064656372656d656e74206f766572666c6f770000000000600082015250565b600061327c601b8361216d565b915061328782613246565b602082019050919050565b600060208201905081810360008301526132ab8161326f565b9050919050565b600081519050919050565b600082825260208201905092915050565b60006132d9826132b2565b6132e381856132bd565b93506132f381856020860161217e565b6132fc816121b1565b840191505092915050565b600060808201905061331c60008301876122b2565b61332960208301866122b2565b6133366040830185612348565b818103606083015261334881846132ce565b905095945050505050565b600081519050613362816120d3565b92915050565b60006020828403121561337e5761337d61209d565b5b600061338c84828501613353565b91505092915050565b60006133a08261221d565b91507fffffffffffffffffffffffffffffffffffffffffffffffffffffffffffffffff8214156133d3576133d2612e74565b5b600182019050919050565b7f4e487b7100000000000000000000000000000000000000000000000000000000600052601260045260246000fd5b60006134188261221d565b91506134238361221d565b925082613433576134326133de565b5b828204905092915050565b60006134498261221d565b91506134548361221d565b925082613464576134636133de565b5b828206905092915050565b7f4e487b7100000000000000000000000000000000000000000000000000000000600052603260045260246000fdfea26469706673582212201800af5aeb679fecc4e691410d55ec444e36f91adf104e4557a810f9527a103f64736f6c63430008090033",
  "linkReferences": {},
  "deployedLinkReferences": {}
}